:040000008031202803
:100008007E14803120007F08FD000B1F13282E006E
:1000180099188F1C13288531232580311B280B1F25
:100028001B282E0019180F1C1B28803145207D081D
:100038002000FF007E10090080312228F030840063
:1000480084308500A030860000308700103085316C
:1000580015258031F001F101F201F301F401F501F8
:10006800F60161308400003085000E3085311B2593
:100078002100B001B101B201B3017E10200081312D
:1000880080292E000F102300901F74299013200040
:10009800E7017208023E8600870101088600870191
:1000A8008101810AF2010800E31808006208F900DA
:1000B8007908F2006208860087010108F9007908CA
:1000C800F400620886008701413FF3000330F9001D
:1000D8007908E20762086F3A031D76286C30F90048
:1000E8007908E2006310620861060319E31423002B
:1000F80011140230F90079082000E70008002300F5
:1001080091140230F90079082000E7000800230064
:10011800111F97280130F90079082000E5070430FD
:1001280084319B2408007608FA007508F900FA362D
:10013800F90C790823008C00751CA8280B30F900ED
:1001480079082000E70008000330F900790820004A
:10015800E70008002300111FBA280130F9007908C8
:100168002000E507043084319B24080091147608A8
:10017800FA007508F9007A08F900FA0106307905DD
:10018800FB0000307A05FC00F0307B04F5000030FD
:100198007C04F60075142000E601E60A0230F90036
:1001A8007908E700080066030319EB28730886003E
:1001B8008701403FF500413FF6007308860087013C
:1001C800433FF100730886008701423FF00075083D
:1001D80023008C00751CF6280530F90079082000EA
:1001E800E70008000330F90079082000E70008005C
:1001F8002300111F0A290130F90079082000E507BA
:1002080023001113053084319B2408000130F002CB
:10021800700A031D23290430F9007908F307013017
:10022800F402031D1B29003084319B24080023009D
:1002380091140230F90079082000E70008007108DD
:1002480086008701010823008C000130F900790835
:10025800F10708002300111F3C290130F900790833
:100268002000E507043084319B2423001113080083
:1002780091150830F90079082000E70008000830D7
:10028800F9007908E70023009115080023000C08FD
:10029800F900710886008701790881000130F900AA
:1002A8007908F1070130F00203196129911206302B
:1002B800F90079082000E700642991168431DE24CA
:1002C800230011160800003084319B2408000130F7
:1002D800F90079082000E507063084319B240800DE
:1002E8002000670884000C30040203186B2984314D
:1002F8000435833E8200080010302000D3005308E4
:10030800D900DD01DE018531002581318B170B17FE
:1003180000308431CA24813120002108E0002008FF
:10032800DF006008D4005F08D300540DD40CD30C50
:10033800540DD40CD30C5308D5005508D6000A30F8
:10034800B1000030B2008231CB228131033020006D
:100358005D05D30000305E05D40053085404031D26
:10036800CC2900308431CA24813120002108E000E2
:100378002008DF006008D4005F08D300540DD40CB7
:10038800D30C540DD40CD30C5308D5005508DC00FD
:100398006008803AD30082305302031DD52981308A
:1003A8005F02031CE1291F302000D30053088D048D
:1003B800E030D30053088E040B2A20006008803AEE
:1003C800D30081305302031DEB2941305F02031C27
:1003D800022A1F302000D30053088D04E030D300D8
:1003E80053088E041F30D30053083E00C504E03084
:1003F8002000D30053083E00D004162AE030200025
:10040800D30053088D051F30D30053088E05E03004
:10041800D30053083E00C5051F302000D300530801
:100428003E00D00520005E08DB005D08DA005B08AE
:10043800D4005A08D3005408D300D4015308DA0072
:100448005408DB00FF305D05D70000305E05D8009A
:100458005A08D3005308AE005708D4005408AF0018
:10046800590882315722813120005C08D300530893
:10047800D6000130DD070030DE3DFC305C02031899
:10048800AA295C08D300D401D309D409D30A0319D3
:10049800D40A5308FF3EA6000030543DA70083311C
:1004A8002D238131AA292000C900A0308600003000
:1004B800870034308400003085001030B00016000A
:1004C8001A00B00B632A2030B0003008CE0002308A
:1004D800B0003008D200C401C5013430B000300883
:1004E800C6000130C7000030C8008E14CA01CB0115
:1004F80048084B02031D822A47084A020318C62AE5
:100508004E08B0003008CF002E08B0003008D000E8
:100518002F08B0003008D100CC01CD0152030319D7
:10052800BA2A0330B0003008A7004908B100B20168
:100538003108A8003208A9005230B3003308AA00D5
:100548004F308431042482310230200052060319CE
:10055800A82A52080319BA2A64304C064D04031914
:10056800BA2A0130CC070030CD3D922A5203031934
:10057800C62A0130C4070030C53D0130CA07003023
:10058800CB3D7C2AFD30B00030088E0508002000E5
:100598003208B7003108B600E030B30033083E0037
:1005A800C5051F302000B30033083E00D0052000E9
:1005B8003708803AB30080303302031DE52A013042
:1005C8003602031C1D2B20003708A1003608A000A6
:1005D8009030A2000130A30084314C2482312000E5
:1005E8002108B5002008B4001F30B30033088D047B
:1005F800E030B30033088E043508A7003408A6009D
:1006080083312D238231E0302000B30033088D057B
:100618001F30B30033088E053508A7003408A6003C
:1006280083312D238231FF302000B607FF30B73DDC
:10063800DB2A1F302000B30033088D04E030B300FC
:1006480033088E048830A6001330A70083312D2389
:10065800080000302000B0000030AF000030AE00CD
:100668000030AD002708A1002608A0002130840032
:1006780085308500003FA200013FA30084314C244F
:10068800833120002008A9002108AA00890D893B90
:100698008909AB00AC002708803AA80080302802FE
:1006A800031D582B01302602031C080000302000CF
:1006B800B0000030AF000030AE000030AD003008B0
:1006C800803AA8002C08803A2802031D752B2B08B5
:1006D8002F02031D752B2A082E02031D752B2908CE
:1006E8002D02031808000130AD070030AE3D003080
:1006F800AF3D0030B03D632B2000A3006318B42B3E
:100708000230A20021088600870122088100200803
:10071800A200610A86008701220881002308A2003E
:10072800610886008701220881002108A20061086B
:10073800023E86008701220881000330A2002208B9
:10074800E10761086F3A031DAD2B6C30A200220847
:10075800E100E31062086106031DB92B6314B92B8D
:100768002108860087018101810A21088600870106
:1007780002300106031D08006708031DC02B2E0068
:100788000F1408002000960197019801FF3091008E
:10079800E03092001D309300E7303E00CE001F305D
:1007A800C300FF30B800E501C401B901CF01BA01A7
:1007B800C501D00100308B1B01302000A0008B1335
:1007C80055303D008F00AA308F000F104608E039E1
:1007D8001338C6004508E0391438C50015303E0006
:1007E800A3001430A40055303D008F00AA308F00BC
:1007F8000F142000201C022C8B1708008B130800F4
:100808002000AD006318252C2D08AB002B08A00094
:100818002708AC002C08A1002908A3002808A2007A
:10082800683084312C24843168302000AB002B08D8
:10083800A0002A08AC002C08A100013083318023D5
:10084800080020002A08860087018101810A080023
:100858002000A6002308A5002208A400A435A50DA1
:100868002608860087012408C03F2508C13F2108C3
:10087800A4002608023E860087012408810020087B
:10088800A4002608033E860087012408810008008A
:100898002000A401A501201C552C2208A407230828
:1008A800A53D0130A235A30D890B562C0130A13688
:1008B800A00C890B5B2C20082104031D4F2C250854
:1008C800A1002408A000080021009401033095002D
:1008D8009601990197010F3098009A019B019C019C
:1008E80004309D009E0122008D018E018F01900130
:1008F8009101920193018430210093000800803116
:100908005828803183288031D7288031FC288131CC
:10091800672981312E298131432981316729813124
:100928004A2981316B2980318B288031AE28F80023
:10093800230011157208023E860087010108031979
:10094800B02C7808F7007208023E8600870101087B
:1009580086008701770881002000E70108006C30D5
:100968002000A0002008E2006C30A0002008E10070
:10097800E3146310E50123008F01283090009201F1
:1009880013308D002E000F10191408002000A3004A
:10099800230821009E00931713131314000021004D
:1009A8001318D32C0D082000A10021000C082000EA
:1009B800A00008000430F7007708F3070130F402BC
:1009C800031DEC2C0430F70077082000E70008002E
:1009D8002000E701E70A0800A034A134A234A334B8
:1009E800A434A534A634A734A834A934AA34AB3423
:1009F800AC34AD34AE34AF348331C6238531853160
:100A08000C2585318431B32485318431682408006C
:100A1800603031008D008F01910106309300920102
:100A28000800FE0012001E00FE0B162D00346400A4
:100A380080010131890B1C2D00342034003408005A
:020000040001F9
:0A000E00EC3FFF3F9F3FFF1FFF3F45
:00000001FF
